:020000040800F2
:100000000050002071440008B9440008B9440008B9
:10001000B9440008B9440008B944000800000000D1
:10002000000000000000000000000000B9440008CB
:10003000B944000800000000B94400083730000847
:10004000B9440008B9440008B9440008B94400089C
:10005000B9440008B9440008D1300008D73000087E
:10006000DD300008E3300008E9300008B94400083A
:10007000B9440008B9440008B9440008B94400086C
:10008000B9440008B9440008B9440008B94400085C
:10009000B9440008B9440008B9440008EF3000082A
:1000A000B9440008D5400008B9440008E9400008F8
:1000B000ED4000080141000815410008B94400085E
:1000C000B9440008B9440008B9440008B94400081C
:1000D000B9440008E93B0008013C0008193C00084D
:1000E000053100086D360008B94400080000000022
:1000F0000000000000000000000000000000000000
:0C01000000000000000000005FF808F1A3
:10010C0010F8012B11F8013B012A28BF9A42F7D0B5
:10011C00D01A7047034613F8012B002AFBD1181A8A
:10012C000138704710B5054C237833B9044B13B123
:10013C000448AFF300800123237010BD6001002040
:10014C0000000000A048000808B5034B1BB1034990
:10015C000348AFF3008008BD0000000064010020DC
:10016C00A048000810B540220021044604F068FAAB
:10017C000023236410BD00002DE9FF4190F844409A
:10018C00054604F0FD03042B0E46174601D0442C03
:10019C004ED13046FFF7BEFF0138B84243D2062C91
:1001AC002DD1312333702E2373703323B37000237E
:1001BC004FF00108F3702C6C1F4F013CE4B274B388
:1001CC0000204346EB5C013C23F0800208F101085F
:1001DC0002EBC01014F0FF045FFA88F880B201D073
:1001EC001B06EED40A22694604F023F93946304640
:1001FC0004F0E4FA6946304604F0E0FADFE7002345
:10020C0085F8453095F845302A6C934205D2EA5C66
:10021C00F25495F845300133F2E70024B4542046EB
:10022C0004B0BDE8F0812846FFF79CFF0124F6E7F7
:10023C00FFF798FF0724F2E72E49000870B50E4629
:10024C00154600214022044604F0FAF906F0BF03DB
:10025C00042B1BD12846FFF75DFF01383F2810D82F
:10026C00284684F84460FFF755FF0023206484F887
:10027C00453094F8453098420DD9EA5CE25401338C
:10028C00F5E72046FFF76EFF012070BD2046FFF713
:10029C0069FF0720F9E70020F7E710B504460B6863
:1002AC0008461B6821469847204610BDF0B5AFB0F4
:1002BC0006A9B94801F064FCB84C0A2220709DF8DC
:1002CC001810B74804F030F89DF8182002F16003BC
:1002DC00DBB2012B08D9A32A40F094809DF824208E
:1002EC002378134340F08E803123AE4D01262B70C2
:1002FC002E236B703323AB7000231B9CAA4F013C45
:10030C00EB70E4B2FCB1002033462EAA134413F870
:10031C008C3C013C23F08002013602EBC01014F03F
:10032C00FF04F6B280B201D01B06EDD40A2202A95A
:10033C0004F07FF83946284604F040FA284602A912
:10034C0004F03CFADEE79749954803F0A3FF974980
:10035C009448FFF7D5FE18BB9DF81830A32B12D18B
:10036C00A2238DF8183004238DF824309049684668
:10037C0001F044FE69468A48FFF78FFF04468D4919
:10038C0003F078FF2AE004218A4A1CA8FFF756FFE5
:10039C00894B8DF824001870A2238DF81830E5E7EE
:1003AC0086498048FFF7ACFE002857D19DF81830DD
:1003BC00834EA32B2CD1A2238DF8183004238DF857
:1003CC0024308049684601F019FE69467448FFF7ED
:1003DC0064FF0A223168044603F0B0FF7A4902A890
:1003EC0001F00CFE204602A9FFF757FF04460A2233
:1003FC002C9903F0B0FF204603F044FF664806A991
:10040C0001F0C8FC644806A901F079FB2FB0F0BDDF
:10041C0021463C221DA8356804F012F904232C93C4
:10042C0043238DF8B430C5F307638DF87030C5F3F2
:10043C0007438DF87130C5F307238DF872305E4B8E
:10044C000A221C70A223214655488DF873508DF852
:10045C0018308DF8244003F067FFB2E75B49514830
:10046C00FFF74EFE18BB9DF81830534CA32B18D138
:10047C005748FFF74FFE564902461CA8FFF77CFE73
:10048C00A223207053498DF8240068468DF818304B
:10049C0001F0B4FD69464248FFF7FFFE4C490446A3
:1004AC006EE704214A4A1CA8FFF7C8FEE8E74A4950
:1004BC003C48FFF725FE38BB4849394803F0EAFEB3
:1004CC009DF818303C4CA32B18D14548FFF722FE61
:1004DC00434902461CA8FFF74FFEA2232070414956
:1004EC008DF8240068468DF8183001F087FD6946B8
:1004FC002B48FFF7D2FE3A49044641E70421384A1B
:10050C001CA8FFF79BFEE8E737492648FFF7F8FDE4
:10051C0018BB9DF81830284CA32B18D13348FFF783
:10052C00F9FD324902461CA8FFF726FEA2232070D3
:10053C002F498DF8240068468DF8183001F05EFDC7
:10054C0069461748FFF7A9FE2849044618E7042115
:10055C00264A1CA8FFF772FEE8E726491148FFF768
:10056C00CFFDA22500285DD19DF81830A32B45D1D5
:10057C0004238DF818508DF8243068461E4901F07C
:10058C003DFD69460648FFF788FE0A22072104460E
:10059C0003F0A7FE22E700BF4003002088010020E3
:1005AC0090050020890100202E490008B40000208D
:1005BC00B84800088E000020D0010020C6000020A2
:1005CC0084010020C6480008C44800087C000020B4
:1005DC0068000020D348000814000020DE48000802
:1005EC0000000020E94800083A0000202600002006
:1005FC00F74800084C000020064900083C22214620
:10060C001DA804F01DF804232C9302238DF8B4309C
:10061C004FF0E0631C93064B8DF818501C708DF84E
:10062C002440AAE702238DF818508DF82430E5E613
:10063C00D001002013B506224FF4E1311F4803F01E
:10064C0035FC1F49684603F0E9FD18236A461D492D
:10065C001D4800F0E1FE1D4801F066FA1C4C0146F5
:10066C0020700A22154803F05FFE237893B91949CC
:10067C00164801F041FA0A2003F08EFF164968462D
:10068C0001F0BCFC69460D48FFF707FE03F0FAFDCC
:10069C0002B010BD0A2003F07FFF1049684601F03C
:1006AC00ADFC69460548FFF7F8FD04460C4B0A22E1
:1006BC00197803F037FE2046E8E700BF90050020CC
:1006CC005E00002062000020940200204003002005
:1006DC0088010020B90200081749000830490008B9
:1006EC00D001002008B5094801F038FA03F052FF98
:1006FC00074A1368C01AB0F57A7F06D903F57A73E6
:10070C001360044A13686433136008BD400300206F
:10071C00CC01002084010020002307B51A4619469D
:10072C000093054803F06EFD03F034FF034B186093
:10073C0003B05DF804FB00BF7C010020CC0100205D
:10074C00232970B504461BD800230C2505FB03F6A2
:10075C00A65FD8B2B1420DD00133042BF6D1012AD9
:10076C000CD100230C2505FB03F2A65ED8B2013692
:10077C0001D1A15270BD0133042BF4D11846F9E715
:10078C000420F7E770B503464FF6FF7201250024ED
:10079C000B4E00F130011A805E601D725C720C33DE
:1007AC008B42F8D1074B0286998EA0F89010D98E07
:1007BC00A0F892105B8EA0F89620A0F8943070BD33
:1007CC0000093D002C4D0008232970B505460E4646
:1007DC0021D80122FFF7B4FF032804461BD8232E8F
:1007EC000BD0B5F99630013307D10121304603F017
:1007FC005FFE0121304603F0A9FE0C20002300FB14
:10080C00045485F88530627A237A616805F13400E6
:10081C0000F0DAF82E8670BD82B0F8B5232906AC4C
:10082C0005460E4684E80C0029D80122FFF788FF04
:10083C000328044623D80C2707FB0057079BBDF859
:10084C0020207B609DF82230232E3A81BB720BD086
:10085C00B5F99630013307D10121304603F028FE5B
:10086C000121304603F072FE0C2000FB0454796821
:10087C00237A627A05F1340000F0A6F82E86BDE8E2
:10088C00F84002B0704700002329F0B519D8034690
:10089C004FF6FF74012600270A4D00F13002B3F920
:1008AC0000C00C338C4501BF23F80C4C43F8085C9A
:1008BC0003F8046C03F8037C9342F0D14FF6FF73FA
:1008CC000386F0BD00093D00F0B587B08DF80F2010
:1008DC000022232904460D461F468DF817203FD8C9
:1008EC00FFF72EFFB4F9303006469D4210D0032896
:1008FC0003D99DF8170007B0F0BD0C2101FB004196
:10090C0004F134000B7A4A7A496800F05DF82586C8
:10091C00232D07D0B4F99630013303D1002128469A
:10092C0003F014FE0C2000FB0646B37A0DF11702FF
:10093C0001934FF47A730DF10F01009304F134001D
:10094C00012300F069F9232DD3D0012FD1D1B4F9B3
:10095C0096300133CDD13946284603F0F7FDC8E770
:10096C001046C8E70148FFF70DBF00BFD4010020B7
:10097C0070B50D0E445991FAA1F3B3FA83F30F2617
:10098C009B0006FA03F324EA030491FAA1F1B1FAED
:10099C0081F1890002FA01F12143415170BD00003F
:1009AC000346074A106853B1064A934205D002F534
:1009BC007842934203D101F0D7BE01F0C5BE704717
:1009CC00F4000020003800402DE9F74F0D46174683
:1009DC0098460446002800F0D0808649B0F95E00A5
:1009EC0002F010FE84498146B4F95C0002F00AFE64
:1009FC0082498246B4F9600002F004FE8049064642
:100A0C00B4F9620002F0FEFD8346B9F1000F00F06C
:100A1C00B480BAF1000F00F0B080002E00F0AD8071
:100A2C005146484602F006FE59468246304602F0D0
:100A3C0001FE01468146504602F0FCFDA065BAF16C
:100A4C00000F00F09A80B9F1000F00F0968000289A
:100A5C0000F09380B4F9623020605A1C14BF4FF43C
:100A6C0080234FF40073A3614FF482736360FFF72C
:100A7C0097FFB5EB500FC0F083800023002617F0D2
:100A8C00FD0FE3610CBF33460123022F636134BFBA
:100A9C003346022323610723B045E36214BF334678
:100AAC008023B4F95E00C4E90836A660A662E6604D
:100ABC00504902F087FDB4F95C004F4902F082FD09
:100ACC00B4F960004D4902F07DFD2369B342B4F9DD
:100ADC00603008BF0225C3F3031218BF0125042A96
:100AEC008CBF3046474903F00F0398BF51F82200E2
:100AFC00454A52F823100B0EC65891FAA1F2B2FADD
:100B0C0082F39A000F239340334091FAA1F2B2FA88
:100B1C0082F2022D4FEA820223FA02F34FEA1125E8
:100B2C004DD0042B02D10822FFF722FFC26822EA23
:100B3C00050295FAA5F50123B5FA85F503FA05F535
:100B4C001543C5602E49B4F9620002F03BFD2368E1
:100B5C002E4A93423FD12E4B9A6942F480529A61AD
:100B6C009B6903F480530093009B204601F09DFE8B
:100B7C002268136843F04003136003B0BDE8F08FA4
:100B8C00B5EB900F01D3082378E7B5EBD00F01D369
:100B9C00102373E7B5EB101F01D318236EE7B5EBE9
:100BAC00501F01D3202369E7B5EB901F01D32823F5
:100BBC0064E7B5EBD01F2CBF302338235EE7042B42
:100BCC0002D10822FFF7D4FEC36823EA050395FA85
:100BDC00A5F5C360B6E70F4A9342C6D10C4BDA6950
:100BEC0042F48042DA61DB6903F480430193019B98
:100BFC00BBE700BF244C0008F44B0008544C000821
:100C0C00844C0008E00000204C4A000800300140F1
:100C1C0000100240003800402DE9F047DDF820803C
:100C2C000C4615461E469DF824905BB1B8F1000F9A
:100C3C000BD0076801F02CFA82462644B44207D147
:100C4C00002003E0B8F1000F1BD10120BDE8F087B4
:100C5C00BB689A07FCD514F8013B3B73B9F1000F44
:100C6C0005D1BB68DB07FCD5FB6805F8013BB8F187
:100C7C00FF3FE3D001F00CFAA0EB0A004045DDD3B6
:100C8C00E3E70220E2E70000002307B51A46194605
:100C9C000093034803F0B6FA03B05DF804FB00BF01
:100CAC006C0200204B6843600023038170470139BC
:100CBC00084630B510F8013F002BFBD11C460A2525
:100CCC0011F8010F70B1032C14DC2E2806D1FF2B68
:100CDC0010DC1019037101340023F1E7303805FBE7
:100CEC000303EDE7FF2B04DC032C02DC0120224480
:100CFC00137130BD0020FCE7002307B51A461946D6
:100D0C000093034803F07EFA03B05DF804FB00BFC8
:100D1C00740200202DE9F34106460D4603F03AFC1F
:100D2C0006F10C040222308106F10801204600F085
:100D3C000CFA012302220DF106012046ADF8063013
:100D4C0000F003FA4FF4807302220DF106012046E5
:100D5C00ADF8063000F0F9F9002302220DF106017E
:100D6C002046ADF8063000F0F0F902220DF1060134
:100D7C00204600F0EAF9022220460DF1060100F0AF
:100D8C00E4F92F462B78D3B13E46337835460136FD
:100D9C000BB12E2BF9D1A5EB0708B8F1000F0CDD28
:100DAC0001220DF1050120468DF8058000F0CDF9EA
:100DBC0042463946204600F0C8F93746E2E74FF480
:100DCC0080750DF10501012220468DF8053000F0EB
:100DDC00BCF90DF1060102222046ADF8065000F0D8
:100DEC00B4F9022220460DF10601ADF8065000F0D0
:100DFC00ACF9012002B0BDE8F0812DE9F04387B0D9
:100E0C0007468846164603F0C5FB054607F10C0459
:100E1C00204600F0E1F9002809DC03F0BBFB401B85
:100E2C00404500F2E480322003F0B6FBF0E77A6A2A
:100E3C007B689A4240F0DE803B8D352B40F0DA80A7
:100E4C00204600F04FF90B2840F3D7800C222046A7
:100E5C000DEB020100F09BF9BDF80E3039891D0A2B
:100E6C00BDF80C2045EA03252BB29142ADB2ADF88A
:100E7C00065001D1002B08DB204600F041F94FF65B
:100E8C00FC75284607B0BDE8F08340F20F231D40E7
:100E9C0005D0204600F034F94FF6FB75F1E7BDF8AC
:100EAC0012301F0A47EA0327BFB22FB9204600F0C1
:100EBC0027F94FF6FA75E4E7BDF81030AAB25BBA21
:100ECC009BB29A4221DA012220460DF10A0100F070
:100EDC005EF99DF80A306BB9204600F042F92046C5
:100EEC0000F03FF9204600F03CF9204600F039F9BB
:100EFC000135E1E79DF80A305A1E8DF80A20002BC7
:100F0C00E1D0204600F02DF9F4E74FF00008C1467F
:100F1C00012220460DF1050100F039F99DF805304C
:100F2C0013F0C00F0BD17BB19DF805305A1E8DF814
:100F3C000520002BECD0204600F013F9F4E72046F6
:100F4C0000F00FF98DF80590022202A9204600F05E
:100F5C001EF902220DF10A01204600F018F9204674
:100F6C0000F0FFF8204600F0FCF8204600F0F9F8FD
:100F7C00204600F0F6F8022220460DF1060100F0A2
:100F8C0006F9BDF80830B3F5807F0DD00025BDF80B
:100F9C000630AAB25BBA9BB29A4205F101051ADA85
:100FAC00204600F0DEF8F2E7BDF80A506DBAADB29B
:100FBC00012DEBD1BDF8062052BA92B2042A05D00D
:100FCC00204600F09DF84FF6F7755AE72046311D84
:100FDC0000F0DDF855E708F101081FFA88F3BB4271
:100FEC0096D3204600F08CF84FF6F67549E74FF68D
:100FFC00FF7546E74FF6FE7543E74FF6FD7540E784
:10100C002DE9F34106460D469046FFF750FE044687
:10101C0058BB1C4B72685B689A4228D003F0BAFA32
:10102C0006F10C0700F00F0101F58061384600F065
:10103C00FDF8012815D1144B3522009373686946CD
:10104C003846019300F078F840B129463046FFF756
:10105C0061FE18B1384600F075F858B9384600F002
:10106C0059F8204602B0BDE8F0810124F9E76FF091
:10107C000104F6E7424641F288313046FFF7BDFEE7
:10108C000446EBE774020020884E0008002307B5E5
:10109C001A4619460093034803F0B4F803B05DF800
:1010AC0004FB00BF7C020020002307B51A4619463A
:1010BC000093034803F0A6F803B05DF804FB00BFEF
:1010CC0084020020002070470368DB6B1847000087
:1010DC00024A02608A694260704700BF884E00086D
:1010EC00808B7047008C704707B503688DF807102C
:1010FC0001225B680DF10701984703B05DF804FB12
:10110C0010B50446238C23B123682046DB6898472E
:10111C00F8E710BD10B50446007C082808D000F094
:10112C00FDF90021227C034B23F8121008232374B1
:10113C0010BD00BFA402002000230431C383007C37
:10114C0000F07ABA007C00F08FBA10B5044693B266
:10115C000A46C18B007C00F053FAE38B0344E38313
:10116C0010BD038C13B504461BB94FF0FF3002B011
:10117C0010BD0122007C0DF1070100F005FA0028DA
:10118C00F3DD238C9DF80700013B2384EFE7038CF0
:10119C0010B5044613B94FF0FF3010BD934294BF05
:1011AC001AB212B2007C00F0EFF90028F3DD238CA8
:1011BC001B1A2384F1E7038C07B54BB1007C0DF1AE
:1011CC00070100F00FFA9DF8070003B05DF804FB6F
:1011DC004FF0FF30F9E7000013B5044603685B6974
:1011EC009847217C104800F0A7FBD0B10822694633
:1011FC00207C00F0C9F9002813DD694604F11400C5
:10120C0003F014F89DF804209DF805309DF80700B4
:10121C0003EB0223A3839DF8063000EB032080B27E
:10122C00208402B010BD00BF2E030020F8B5037C53
:10123C000446082B0D4601D00020F8BD0026F7B25D
:10124C0079010831032001F0F80100F00DFB60B9C1
:10125C002774207C0828EFD000232A4602216582BF
:10126C00238400F069F90120E7E71828F0D0013653
:10127C00082EE4D1EDE7000000224FF47A7310B58C
:10128C00C0E90123054B044603600823143000F821
:10129C00043C02F0AFFF204610BD00BF5C490008C3
:1012AC0070B50E4690B0044604A8154602F0A2FF95
:1012BC0007A8FFF7E1FF684602F09CFF0D4902A862
:1012CC0000F0C0F802A904A8FFF7ECFC6A4631460E
:1012DC0004A8FFF795FE012809D1074A2368204688
:1012EC00DB6A0292019A02A903922A46984710B02F
:1012FC0070BD00BF94020020884E0008002307B583
:10130C001A4619460093034802F07CFF03B05DF8BF
:10131C0004FB00BF8C020020042302461946012066
:10132C0000F05ABA042302461946052000F054BABC
:10133C00024606230421092000F04EBA042302467B
:10134C0019460F2000F048BAF8B50F4616461D4650
:10135C0004460899094800F0FDF93846FFF7E8FF04
:10136C00301DFFF7EBFF06980430FFF7D5FF079809
:10137C000430FFF7D7FF6B686360F8BD2E030020C5
:10138C002DE9F0411F4600238EB00093FF239046B9
:10139C0005460E461A46194604A802F033FF0F4CB8
:1013AC00D8F804303146CDE907347B682846CDE9BE
:1013BC000934149B06AA5B680694CDE90B34059B93
:1013CC000D93159B02930CAB01930AAB009308ABE6
:1013DC00FFF7BAFF0EB0BDE8F08100BF884E0008E1
:1013EC0010B554685B680B4A8AB0CDE9073201230B
:1013FC0003948DF80F30039BCDE9042409930C9BC7
:10140C000692019308AB009304AA06ABFFF7B8FF52
:10141C000AB010BD884E000810B55468084A88B050
:10142C00CDE904240692012203948DF80F20039A2F
:10143C000093079206AB04AAFFF7D2FF08B010BDC9
:10144C00884E0008024A02604A684260704700BF3A
:10145C00884E0008002307B51A4619460093064823
:10146C0002F0D0FE0548FFF707FF054803B05DF812
:10147C0004EB02F0BFBE00BF9C0200200003002062
:10148C0094020020002307B51A461946009303481E
:10149C0002F0B8FE03B05DF804FB00BF240300208B
:1014AC0040010C300A46042300F0FC010C2000F033
:1014BC0093B9034608465901083101F0F80100F0D0
:1014CC00D3B908B50221FFF7F4FF08BD034608465F
:1014DC0059010C3101F0FC0100F0FAB838B50546A1
:1014EC000C460A0A0421FFF7F1FF05212846E2B257
:1014FC00FFF7ECFF38BD08B50A460221FFF7E6FFFF
:10150C0008BD38B505460C460A0A1021FFF7DEFF68
:10151C0011212846E2B2FFF7D9FF38BD10B50446B9
:10152C0001461022034800F0CCFAFF212046FFF7B9
:10153C00E2FF10BD2E030020F8B51F464B1E042BF6
:10154C0004460E46154619D8FFF7E8FF0021204641
:10155C0046EA0702FFF7BAFF55B129462046FFF7C6
:10156C00BDFF07480122214600F0ABFA0120F8BD6F
:10157C00044B1988013189B21980EFE70020F6E796
:10158C002E0300202C030020F7B505460E4601461D
:10159C001348174600F0D0F904B274B90321284659
:1015AC00FFF787FF142805D020B1B0F11C0418BF39
:1015BC004FF0FF34204603B0F0BDBC42A8BF3C4600
:1015CC00002CF7DD00233246294600930448A3B2D1
:1015DC0000F04BFA40222946014800F072FAE9E784
:1015EC002E03002013B501240A462346014600941D
:1015FC00024800F03AFA204602B010BD2E0300203B
:10160C00F7B505460E4601460A481C46174600F03B
:10161C0075F9A04204D22946064800F06FF9044639
:10162C003B46324629460348009400F095F9204683
:10163C0003B0F0BD2E03002038B50B7805461446D8
:10164C002BB94B781BB98B780BB9C87840B144B126
:10165C002846FFF725FF28462146FFF752FF0120B9
:10166C0038BD2046FCE70000014638B5202205466F
:10167C000C4800F026FA2846FFF723FF10F0100460
:10168C000AD12846FFF71DFF0307F4D52846182179
:10169C00FFF731FF204638BD28461021FFF72BFFFE
:1016AC000120F8E72E03002002729DF80020416013
:1016BC0082720BB9437205E0012BFBD0022BF9D0DF
:1016CC00032BF7D0704713460A462321FFF7FCB8CB
:1016DC002DE9F04105460F461646DFF8748086B0BA
:1016EC00D8F80000002102F031FF174A03AB07CAFB
:1016FC0083E80700059A154C00920CCB2046232159
:10170C00FFF78AF8290A01222046FFF7DCFFE9B22D
:10171C0001222046FFF7D7FF394601222046FFF76A
:10172C00D2FF012231462046FFF7CDFF2046232170
:10173C00FFF7AAF8D8F80000012102F007FF0120FA
:10174C0006B0BDE8F08100BF30030020D4010020BA
:10175C003C03002030B50C4687B04FF47A7002F091
:10176C001BFF194B20461C600024012102F0A0FE37
:10177C0003AD23211548FFF727F82346012214490E
:10178C0028460094FFF790FF95E80700114B03C320
:10179C0023F8022B120C1A70052180222046FFF729
:1017AC0097FF65010C35EDB2022229461E20FFF78A
:1017BC008FFF0134022229461F20FFF789FF082CD6
:1017CC00EFD107B030BD00BF3C030020D401002096
:1017DC0000127A00300300202DE9F04107468846BC
:1017EC0014461D4686B0002B33D01C4E00213068A9
:1017FC0002F0ACFE1A4A03AB07CA83E80700059A4D
:10180C00232100920CCB1748FFF706F8390A012266
:10181C001448FFF758FFF9B201221248FFF753FFA3
:10182C00414601220F48FFF74EFF0E4F04EB05080F
:10183C00444506D00122384614F8011BFFF743FF3C
:10184C00F6E723210748FFF71FF80121306802F063
:10185C007DFE284606B0BDE8F08100BF3C030020A9
:10186C0030030020D4010020F0B505460E46194F78
:10187C0087B03868002102F069FE174A03AB07CA2B
:10188C0083E80700059A154C00920CCB20462321C7
:10189C00FEF7C2FF290A01222046FFF714FFE9B226
:1018AC0001222046FFF70FFF314601222046FFF7A9
:1018BC000AFF012200212046FFF705FF05462321E0
:1018CC002046FEF7E1FF3868012102F03FFE284672
:1018DC0007B0F0BD3C03002030030020D4010020F1
:1018EC0038B520210546FFF7E4FD212104022846E6
:1018FC00FFF7DFFDA4B2204480B238BD70B50E46B0
:10190C0000243046FFF7ECFF054618B13046FFF7D0
:10191C00E7FF0446AC42F4D1204670BD38B5262111
:10192C000546FFF7C6FD272104022846FFF7C1FD37
:10193C00A4B2204480B238BD70B50E4600243046A7
:10194C00FFF7ECFF054618B13046FFF7E7FF0446FA
:10195C00AC42F4D1204670BD2DE9D0430E46242173
:10196C0030461F461446BDF81880FFF7A2FD25210E
:10197C0081463046FFF79DFD044404EB09247101B8
:10198C00A4B2143143463A46204601F0FC01FFF75D
:10199C0023FF04EB080294B224213046C2F3072241
:1019AC00FFF794FD25213046E2B2FFF78FFDBDE82D
:1019BC00D08300002DE9F043804689461F4F87B045
:1019CC000021386814461E4602F0C0FD1C4B03ADC6
:1019DC0093E8070085E80700059B2321009395E811
:1019EC000C001848FEF718FF4FEA18210122154881
:1019FC00FFF769FE5FFA88F101221248FFF763FED8
:101A0C00012249460F48FFF75EFE0E4D04EB060817
:101A1C00444507D0012200212846FFF754FE04F864
:101A2C00010BF5E723210748FEF72EFF386801214B
:101A3C0002F08CFD304607B0BDE8F0833C0300207B
:101A4C0030030020D401002010461A4682B0ADF8B5
:101A5C000600BDF806004901BDF80830183101F048
:101A6C00F80180B202B0FFF7A5BF2DE9F7450E468D
:101A7C0080462821304692461F469DF82840FFF7A5
:101A8C0018FD292105023046FFF713FDADB20544C0
:101A9C00ADB253462A46314640460097FFF7D4FF75
:101AAC0064B97A19282194B23046C2F30722FFF7A1
:101ABC000DFD29213046E2B2FFF708FD03B0BDE869
:101ACC00F08510B50C4601212046FFF7FFFC0121E3
:101ADC002046FFF7EEFC0028F9D110BD4FF6FF723F
:101AEC00034B1A80034A5A6001221A81704700BFC7
:101AFC003003002000093D00C0F8B81070470846BC
:101B0C0002F096BD002307B51A4619460093044807
:101B1C0002F078FB034803B05DF804EBFFF7ACBBB5
:101B2C0020040020FC03002008B5094BA121C0F8BB
:101B3C00A830084BC0F8B0300723C0F8B4300623E7
:101B4C00C0F8AC300448FFF771FB002008BD00BFA3
:101B5C00A8490008AF490008FC03002010B5044652
:101B6C000648FFF739FB0548FFF7BCFA28B1D4F853
:101B7C00B83013B1BDE81040184710BDFC0300206D
:101B8C002DE9F04F044689B081480D46FFF7AAFABB
:101B9C0087B2992200212046A4F89A7002F050FDD9
:101BAC00992F00F2EF803A4621467948FFF7EFFA79
:101BBC002378302B40F0E88094F803A004F1050B57
:101BCC000AF10303DBB2E21892F802C00AF1050035
:101BDC006044C0B2221892F801E01279011D114440
:101BEC00C9B20292621892780392039E8A1C324404
:101BFC00D2B2A618B6780496049F961C3E445FFA9F
:101C0C0086F904EB090696F8068009F106064644A7
:101C1C00F6B20596A6197778B67807970696002639
:101C2C006E6001969DF80470BA4508D91BF8016BDB
:101C3C006F6846EA0727019E6F600136F1E7BCF139
:101C4C00140F85F800E084F89EE005D901230220EA
:101C5C002B7309B0BDE8F08FBEF1A30F14D1D4F8EB
:101C6C00B4E0F4450CD1002703332344BE4523D004
:101C7C00D4F8B06013F801CBF65D0137B445F5D05C
:101C8C00022307202B73E4E7BEF1A00FF8D1D4F8A0
:101C9C00AC70BC45F4D14FF0000C033323446745C2
:101CAC000AD0D4F8A86013F801EB16F80C600CF10C
:101CBC00010CB645F3D0E3E700260530AE602044B6
:101CCC00029FF3B29F4207D910F8017BAB68013633
:101CDC0047EA0323AB60F3E70023184603312B7369
:101CEC002144039FDEB2B74205D911F8016B0133D1
:101CFC0046EA0020F5E700210332287329612244CB
:101D0C000498CBB2984207D912F8010B2B69013118
:101D1C0040EA03232B61F3E7B8F1400F03D9012309
:101D2C0003202B7395E705F1140640220021304661
:101D3C0002F086FC002209F10703C5F85480234405
:101D4C00D1B2884505D913F8011B013206F8011BE5
:101D5C00F6E7079B583585F84430069B40222B64E8
:101D6C000021284602F06CFC002305980330044443
:101D7C000699DAB2914209D914F8012B013305F80E
:101D8C00012BF5E7062064E7052062E7002060E7F9
:101D9C00FC030020F7B50446D1F898304E6D95221F
:101DAC000D46043000211E4402F04AFC94F89E209B
:101DBC002236A32A0CBFD4F8B430D4F8AC30B6B267
:101DCC0033449BB2A4F89A30023B63704FF4817396
:101DDC00302163804FF48063A32AA38021704FF0DD
:101DEC00070315D10022D4F8B460A4F89C30A67176
:101DFC00B4F89C10D0B24B1C86429BB202F101028B
:101E0C001CD9D4F8B070A4F89C303B5C6354EFE759
:101E1C000022D4F8AC60A4F89C30A671B4F89C10E5
:101E2C00D0B24B1C86429BB202F1010206D9D4F807
:101E3C00A870A4F89C303B5C6354EFE7B4F89C307A
:101E4C002A78591CE254D5F898006A6D89B202447C
:101E5C0002201A32625404219A1C92B2A054DA1C49
:101E6C0092B2A154AA685E18C2F30767B6B2A7551E
:101E7C005E1DC2F30747B6B2A7559E1DC2F30727D6
:101E8C00B6B2A7550027DE1DB6B2A25503F1080263
:101E9C0092B2A05403F1090292B2A15403F10A02C6
:101EAC002E7B92B2A75403F10B02C6F3074792B2F2
:101EBC00A75403F10C0292B2C6F30727A75403F1FF
:101ECC000D0292B2A65403F10E0292B2A05403F189
:101EDC000F0292B2A1542A6903F11001C2F30760F8
:101EEC0089B2605403F11101C2F3074089B2605406
:101EFC0003F11201C2F3072089B26054302003F1C0
:101F0C00130189B2625403F1140292B2A0546A6DA7
:101F1C00D5F8986003F11501324489B20632625447
:101F2C0003F1160292B2A0546A6DD5F8980003F131
:101F3C001701024489B204326254062103F11802DB
:101F4C0092B2A1546A6D03F11A0119339BB2A4F831
:101F5C009C10E2540023B4F89C206E6D581CDBB22C
:101F6C00511C9E4289B206D9A4F89C102B441B7DAF
:101F7C00A3540346EFE795F89C30A354D5F898305A
:101F8C000232A4F89C2063540023D5F89820591CE5
:101F9C00DBB29A420AD9B4F89C202B44501CA4F80A
:101FAC009C0093F85830A3540B46EEE70A4D0B4BAC
:101FBC0069460093AB69AA8B28460193FFF7BCF8DE
:101FCC002146B4F89A202846FFF7BFF82846FFF7B9
:101FDC00B9F8002003B0F0BDFC030020884E0008C7
:101FEC0070B506460D4600247368195D21B128466C
:101FFC0002F044F90134F7E770BD0000014AC0E972
:10200C0000217047C04900087047000038B50E4BDE
:10201C00054618784FF47A73B3FBF0F30B4A10684B
:10202C00B0FBF3F000F0A0F8044658B90F2D09D816
:10203C00024629464FF0FF3000F042F82046044B90
:10204C001D6038BD0120FCE7D8000020F400002002
:10205C00DC000020074A08B51368032043F0100386
:10206C00136000F01BF80020FFF7D0FFFFF7CCFF48
:10207C00002008BD00200240034A044B11681B7865
:10208C000B441360704700BFBC060020D800002032
:10209C00014B1868704700BFBC06002007490302BB
:1020AC00CA6803F4E06322F4E0621204120C1343D6
:1020BC0043F0BF6343F40033CB60704700ED00E0A6
:1020CC00164B30B5DC68C4F30224C4F10703251D9C
:1020DC00042B28BF0423062D4FF0FF3598BF002496
:1020EC0005FA03F388BF033C21EA0303A34005FA76
:1020FC0004F422EA0402002843EA0203ACBF00F114
:10210C006040074A4FEA0313DBB2ABBF00F56140F6
:10211C0000F00F0080F80033135430BD00ED00E0E8
:10212C0014ED00E0002808DB0123420900F01F0039
:10213C0003FA00F0014B43F82200704700E100E085
:10214C0000280DDB0122430900F01F0002FA00F009
:10215C00044A203342F82300BFF34F8FBFF36F8F35
:10216C00704700BF00E100E00138B0F1807F0AD277
:10217C00F021064B064A586082F8231000200722F3
:10218C0098601A6070470120704700BF10E000E0B3
:10219C0000ED00E0002809DB0122430900F01F00DC
:1021AC0002FA00F0024A603342F82300704700BF85
:1021BC0000E100E0704708B5FFF7FCFF08BD000028
:1021CC0008B590F82130022B03D00423836301203F
:1021DC0008BD03681A6822F00E021A601A6822F011
:1021EC0001021A60174A93421CD0143293421BD03E
:1021FC00143293421AD0143293421AD014329342AE
:10220C001AD0143293420CBF4FF480134FF08073EA
:10221C000D4A53604FF480730384436B7BB1984732
:10222C000020D5E70123F3E71023F1E74FF4807387
:10223C00EEE74FF48053EBE74FF48033E8E71846B2
:10224C00C6E700BF0800024000000240044A08B57F
:10225C005169014202D0506100F01EFF08BD00BF61
:10226C00000401402DE9F341054638B30368DB0750
:10227C0010D42B689F075ED42B68190700F195804A
:10228C002B685A0700F1BF80E869002840F02C81C8
:10229C00002029E08F4C636803F00C03042B07D05B
:1022AC00636803F00C03082B0AD16368DE0307D5BF
:1022BC0023689C03DDD56B68002BDAD1012013E079
:1022CC006B68B3F5803F12D1236843F480332360ED
:1022DC00FFF7DEFE064623689803CAD4FFF7D8FE44
:1022EC00801B6428F7D9032002B0BDE8F0819BB9AC
:1022FC00236823F480332360236823F48023236032
:10230C00FFF7C6FE064623689903B2D5FFF7C0FE59
:10231C00801B6428F7D9E6E7B3F5A02F236803D117
:10232C0043F480232360CFE723F4803323602368B6
:10233C0023F48023CBE7674C636813F00C0F07D0B2
:10234C00636803F00C03082B10D16368DA030DD417
:10235C0023689B0702D52B69012BAFD123686A69CF
:10236C0023F0F80343EAC203236085E72A695A4B3A
:10237C006AB101221A60FFF78BFE064623689F079D
:10238C00ECD4FFF785FE801B0228F7D9ABE71A6067
:10239C00FFF77EFE0646236898077FF56DAFFFF7C3
:1023AC0077FE801B0228F6D99DE7AA69494E4B4B54
:1023BC00DAB101221A60FFF76BFE0446736A9B07C1
:1023CC000DD54FF4FA52464B1B68B3FBF2F3019355
:1023DC0000BF019B5A1E0192002BF9D150E7FFF769
:1023EC0057FE001B0228E9D97DE71A60FFF750FE63
:1023FC000446736A9F077FF543AFFFF749FE001B46
:10240C000228F6D96FE7334CE369D80024D40127AE
:10241C00E36943F08053E361E36903F08053009375
:10242C00009B304E3368D90518D5EB68012B26D1AB
:10243C00236A43F001032362FFF72AFE41F2883836
:10244C000646236A9B073FD5002F3FF41DAFE36977
:10245C0023F08053E36117E70027E2E7336843F486
:10246C0080733360FFF714FE80463368DA05DCD4E2
:10247C00FFF70EFEA0EB08006428F6D933E7ABB9E2
:10248C00236A41F2883823F001032362236A23F084
:10249C0004032362FFF7FCFD0646236A9807D3D595
:1024AC00FFF7F6FD801B4045F7D91CE7052B236A87
:1024BC0003D143F004032362BAE723F00103236240
:1024CC00236A23F00403B6E7FFF7E2FD801B4045C7
:1024DC00B7D908E700100240000042428004424293
:1024EC00F4000020007000402A4B5A681C4602F091
:1024FC000C02082A3DD00023274E022833602BD132
:10250C00FFF7C6FD0746236899011FD42B6AB3F564
:10251C00803F05D16268A96822F400320A436260E8
:10252C00696A62680B4322F47412134363600123DB
:10253C003360FFF7ADFD054623689A013FF5A8AE61
:10254C00FFF7A6FD401B0228F6D9CCE6FFF7A0FD4D
:10255C00C01B0228D7D9C6E6FFF79AFD05462368AB
:10256C009B017FF595AEFFF793FD401B0228F6D932
:10257C00B9E601283FF4B8AE5B682A6A03F48031EF
:10258C0091427FF49BAE6A6A03F4701393423FF45A
:10259C007FAE93E6001002406000424230B5184B0B
:1025AC0087B002AC03F1100522461868596808334D
:1025BC0003C2AB421446F7D140F201231149ADF8E6
:1025CC0004304B6803F00C02082A17D1C3F3834282
:1025DC0006A80244DB0312F8102C0CD54B680A48F1
:1025EC00C3F34043504306AA134413F8143CB0FB06
:1025FC00F3F007B030BD05485043FAE70248F8E75E
:10260C00C44900080010024000127A0000093D0085
:10261C002DE9F0410D46044610B90120BDE8F081CA
:10262C00444A136803F007038B4228D321688E07B2
:10263C0030D4CA0743D43F4A136803F00703AB42B4
:10264C0065D822683C4D12F0040F6CD1130706D5E7
:10265C006B68226923F4605343EAC2036B60FFF793
:10266C009DFF6B68354AC3F30313D35CD840344BDE
:10267C001860344B1868FFF7C9FC0020CEE71368CC
:10268C0023F007030B431360136803F007038B421B
:10269C00C3D1CBE7284B11F0040F1EBF5A6842F48C
:1026AC00E0625A60080742BF5A6842F460525A60AE
:1026BC005A68A06822F0F00202435A60B9E76268D7
:1026CC001D4E012A33681AD113F4003FA5D073684C
:1026DC0041F2883823F0030313437360FFF7D8FCEF
:1026EC0007467368626803F00C03B3EB820FA2D049
:1026FC00FFF7CEFCC01B4045F3D903208EE7022A1E
:10270C0002D113F0007FE1E713F0020FDEE713684C
:10271C0023F007032B431360136803F00703AB424A
:10272C007FF47BAF8DE76B68E16823F4E0630B43C8
:10273C006B608BE700200240001002408C4A0008BE
:10274C00F4000020DC000020044B054A5B68C3F356
:10275C000223D35C034A1068D84070470010024033
:10276C009C4A0008F4000020044B054A5B68C3F344
:10277C00C223D35C034A1068D84070470010024053
:10278C009C4A0008F400002003682DE9F341D907A6
:10279C00054620D5354CE369DA0032D40127E369CC
:1027AC0043F08053E361E36903F080530193019B91
:1027BC002F4E3368DB0526D5236A13F4407336D1CC
:1027CC00236A6A6823F44073134323621FB1E369DD
:1027DC0023F08053E3612868830706D52349AB684F
:1027EC004A6822F440421A434A6010F010001BD091
:1027FC001E4AE9685368002023F480030B4353609E
:10280C0012E00027D4E7336843F480733360FFF79A
:10281C003FFC80463368D805CED4FFF739FCA0EBDB
:10282C0008006428F6D9032002B0BDE8F0816A687C
:10283C0002F440729A42C3D001200E4A236A1060FF
:10284C00002023F4407110602162D907B8D5FFF73E
:10285C001FFC41F288380646236A9A07B0D4FFF76A
:10286C0017FC801B4045F7D9DDE700BF0010024084
:10287C000070004040044242036810B51A680446D8
:10288C00920708D55B689B0705D500F0DDFE6FF05D
:10289C00020223685A604FF40032024B5A61012342
:1028AC00637410BD00040140704710B50446002845
:1028BC0034D00023836290F8513003F0FF021BB92F
:1028CC0080F85020FFF7F0FF0223226884F8513083
:1028DC001368A16923F040031360D4E9013003436A
:1028EC00E06803432069034360690343E0690343E1
:1028FC00206A0343A06A034301F40070090C0343EC
:10290C0001F0040113605160D369002023F40063CB
:10291C00D3610123606584F8513010BD0120FCE7C0
:10292C0070477047036810B51A69044691070ED5B5
:10293C00DA6892070BD56FF002021A610122027756
:10294C009B699B0777D001F033FC00232377236826
:10295C001A69500710D5DA6851070DD56FF00402CB
:10296C001A61022222779B69204613F4407F68D0BB
:10297C0001F01EFC0023237723681A6912070FD578
:10298C00DA6810070CD56FF008021A61042222775E
:10299C00DB69204699075AD001F00AFC0023237703
:1029AC0023681A69D20610D5DA68D0060DD56FF0F7
:1029BC0010021A6108222277DB69204613F4407F4B
:1029CC004BD001F0F5FB0023237723681A69D1075C
:1029DC0008D5DA68D20705D56FF0010220461A61D6
:1029EC0001F0BAFB23681A69100608D5DA681106DB
:1029FC0005D56FF0800220461A6100F088F8236834
:102A0C001A69520608D5DA68500605D56FF04002EF
:102A1C0020461A61FFF785FF23681A69910622D5B3
:102A2C00DA6892061FD56FF020022046BDE81040F0
:102A3C001A6100F06BB801F0B9FB2046FFF770FF8C
:102A4C0083E701F0B3FB2046FFF76AFF92E701F042
:102A5C00ADFB2046FFF764FFA0E701F0A7FB204683
:102A6C00FFF75EFFAFE710BD1A4A036890420AD029
:102A7C00B0F1804F07D0A2F59432904203D002F50A
:102A8C008062904215D14A6823F070031343114AB7
:102A9C0090420AD0B0F1804F07D0A2F59432904208
:102AAC0003D002F58062904203D1CA6823F44073CC
:102ABC0013434A6923F08003134303608B68C3629A
:102ACC000B688362034B984204BF0B6903630123B9
:102ADC0043617047002C014010B50446A0B190F83A
:102AEC003D3003F0FF021BB980F83C2000F0A6FE3D
:102AFC000223206884F83D30211DFFF7B5FF012328
:102B0C00002084F83D3010BD0120FCE77047704771
:102B1C000368DA6822F49072DA605A6922F00102D2
:102B2C005A61202380F83A307047000038B50546CA
:102B3C000368C1681A69192422F440520A431A61C5
:102B4C0082680069D9680243686921F4B05121F0A8
:102B5C000C0102430A43DA605A69A96922F44072F3
:102B6C000A435A610D4A934214D1FFF7FDFD4443C9
:102B7C006B6864229B00B4FBF3F4B4FBF2F102FB30
:102B8C0011431B013233B3FBF2F3286803EB01133F
:102B9C00836038BDFFF7D8FDE9E700BF003801407E
:102BAC00704710B5044640B390F8393003F0FF027B
:102BBC001BB980F83820FFF7F3FF2423226884F830
:102BCC003930D368204623F40053D360FFF7AEFFAF
:102BDC00236800201A6922F490421A615A6922F083
:102BEC002A025A61DA6842F40052DA602023E06368
:102BFC0084F8393084F83A3010BD0120FCE710B568
:102C0C00044660B390F8393003F0FF021BB980F82A
:102C1C003820FFF7C5FF2423226884F83930D368A5
:102C2C00204623F40053D360FFF780FF2368002075
:102C3C001A6922F490421A615A6922F022025A61EE
:102C4C005A6942F008025A61DA6842F40052DA60BA
:102C5C002023E06384F8393084F83A3010BD012029
:102C6C00FCE790F83930202B18D1A9B1A2B190F81B
:102C7C003830012B12D0C2840023828421220162BD
:102C8C000168C36380F8383080F83920CA68184668
:102C9C0042F08002CA6070470120704702207047E2
:102CAC0090F83A30202B20D1E9B1E2B190F83830CD
:102CBC00012B1AD0C285828500232222C36380F89F
:102CCC003A20026880F838308162D168184641F4A5
:102CDC008071D160516941F001015161D16841F0BD
:102CEC002001D1607047012070470220704710B559
:102CFC0090F83A30222B33D181680469B1F5805FAA
:102D0C00836A026823D15268ECB9C2F3080223F833
:102D1C00022B8362C48D013CA4B2C4858CB90368B8
:102D2C00DA6822F02002DA60DA6822F48072DA6063
:102D3C005A6922F001025A61202380F83A3000F0DF
:102D4C00F9FE00200DE0D2B223F8012BE1E7591C6B
:102D5C00526881620CB91A70DCE702F07F02FAE764
:102D6C00022010BD036870B51A6804461607D968AE
:102D7C005D6907D1960659D58D0657D5BDE87040CB
:102D8C00FFF7B5BF05F0010001F4907505434DD078
:102D9C00D60705D5CD0542BFE36B43F00103E363D2
:102DAC00530704D518B1E36B43F00203E3639607B2
:102DBC0004D518B1E36B43F00403E363150704D5A2
:102DCC0018B1E36B43F00803E363E36B4BB390067A
:102DDC0004D5890602D52046FFF789FF23682046D3
:102DEC005B69E56B03F0400305F008051D4319D042
:102DFC00FFF78EFE23685A6952060FD55A69606B2D
:102E0C0022F040025A6148B1254B4363FFF7D8F9D1
:102E1C0038B1606BBDE87040436B1847204600F03A
:102E2C009FFE70BD00F09CFEE563FAE7160628D500
:102E3C000D0626D594F83920212AF2D1A168226AF0
:102E4C00B1F5805F18D11188C1F30801596021696F
:102E5C0081B902322262E28C013A92B2E284002AF7
:102E6C00DFD1DA6822F08002DA60DA6842F04002E0
:102E7C00DA60D6E70132EDE7511C216212785A6014
:102E8C00E9E75006CDD54A06CBD5DA68204622F0C4
:102E9C004002DA60202384F8393000F04EFEC0E79F
:102EAC00B12E000808B50023406AC385C38400F026
:102EBC0057FE08BD90F83830012B11D0242302683E
:102ECC0080F83930D36823F00C0343F00803D36047
:102EDC00202380F83930002380F8383018467047AA
:102EEC000220704790F83830012B11D0242302684F
:102EFC0080F83930D36823F00C0343F00403D3601B
:102F0C00202380F83930002380F838301846704779
:102F1C000220704790F8392090F83A00104370471F
:102F2C0086B0042841D8DFE800F003101C283400D8
:102F3C001F4B20489A6942F004029A619B6903F086
:102F4C0004030193019B06B07047194B1A489A6908
:102F5C0042F008029A619B6903F008030293029BFA
:102F6C00F1E7134B15489A6942F010029A619B697C
:102F7C0003F010030393039BE5E70D4B10489A698C
:102F8C0042F020029A619B6903F020030493049B96
:102F9C00D9E7074B0B489A6942F040029A619B694A
:102FAC0003F040030593059BCDE70020CBE700BF62
:102FBC000010024000080140000C014000100140CC
:102FCC000014014000180140F8B51449064600F001
:102FDC0019FB00F0E7FF124C054654F8203073B98A
:102FEC000E49304600F00EFB0746A82001F035FADA
:102FFC000646394601F012F854F825301E6054F894
:10300C0025301C6844B1204600F0E8FF2046BDE89E
:10301C00F840A82101F023BAF8BD00BFBC4A000853
:10302C0090060020FFF734B8704708B5FFF724F876
:10303C00FFF7C1F8FFF7F8FF08BD00000B4BDA688B
:10304C00D2015EBFDA6842F08072DA600022084B6F
:10305C005A601A6842F001021A6000BF00BF00BF3C
:10306C005868B0FA80F04009704700BFF0ED00E0FE
:10307C00001000E008B5FFF7E1FFFEF7EBFFBDE83D
:10308C00084000F0FBBD836810B5044613B1032261
:10309C0001469847204610BD0023012803F1010288
:1030AC0002D013464008F8E71421DBB24B43044A24
:1030BC00181D1044816811B11A44136918477047E0
:1030CC00280400200120FFF7C1B80220FFF7BEB88A
:1030DC000420FFF7BBB80820FFF7B8B81020FFF7A3
:1030EC00B5B838B505242025A8B2FFF7AFF8013CD8
:1030FC004FEA4505F8D138BD38B506244FF4806544
:10310C00A8B2FFF7A3F8013C4FEA4505F8D138BD4A
:10311C000721204B06221975082183F82810092154
:10312C0083F83C100A2183F8501017211A7083F889
:10313C006410002283F8781083F88C1083F8A010A8
:10314C0083F8B4102821DA601A625A639A64DA653B
:10315C001A67C3F88420C3F89820C3F8AC20C3F8CE
:10316C00C02083F8C810C3F8D42083F8DC10C3F84F
:10317C00E82083F8F010C3F8FC2083F80411C3F89E
:10318C00102183F81811C3F8242183F82C11C3F8EB
:10319C00382170472804002038B5054CA4F5A075DB
:1031AC00143C201DFFF76FFFAC42F9D138BD00BFB6
:1031BC00680500207B4B82B09A69013842F001020D
:1031CC009A619B6903F001030193019B23282CD87E
:1031DC00DFE810F024002D0034003B0040004700D5
:1031EC004C00530058005F0068006D0074007D00B7
:1031FC008200890092009B00A000A700B000B500DF
:10320C00BC002B002B002B00C100C8002B002B0096
:10321C002B002B00CD00D200D900E000624A53688D
:10322C0043F0E06343F00103536002B070475E4A21
:10323C00536823F0010343F0E063F5E75A4A5368FF
:10324C0043F0E06343F00203EEE7574A536823F080
:10325C000203F0E7544A536843F0E06343F004037D
:10326C00E2E7514A536823F00403E4E74E4A5368FB
:10327C0043F0E06343F00803D6E74B4A536823F06E
:10328C000803D8E7484A536843F0E06343F030033F
:10329C00CAE7454A536823F0300343F0E06343F038
:1032AC001003C1E7404A536823F03003C3E73E4A9A
:1032BC00536843F0E06343F0C003B5E73A4A536800
:1032CC0023F0C00343F0E06343F04003ACE7364A1D
:1032DC00536823F0C003AEE7334A536843F0E0630E
:1032EC0043F44073A0E7304A536823F4407343F02F
:1032FC00E06343F4007397E72B4A536823F440735D
:10330C0043F0E06343F480738EE7274A536823F459
:10331C00407390E7244A536843F0E06343F44063FE
:10332C0082E7214A536823F4406343F0E06343F49B
:10333C00006379E71C4A536823F440637BE71A4A1D
:10334C00536843F0E06343F480536DE7164A5368C7
:10335C0023F480536FE7144A536843F0E06343F45B
:10336C00004361E7104A536823F4004363E70E4AB5
:10337C00536823F0E06357E70B4A536823F0E0638C
:10338C0043F0807350E7084A536823F0E06343F03E
:10339C00007349E7044A536823F0E06343F0806309
:1033AC0042E700BF001002400000014070B50D0E56
:1033BC00445991FAA1F3B3FA83F30F269B0006FA52
:1033CC0003F324EA030491FAA1F1B1FA81F1890023
:1033DC0002FA01F12143415170BD70B50D0E4459F3
:1033EC0091FAA1F3B3FA83F304269B0006FA03F3D4
:1033FC0024EA030491FAA1F1B1FA81F1890002FAED
:10340C0001F12143415170BD431C04D00C3131F901
:10341C000C3C5A1C01D100207047834201F10C0175
:10342C00F5D1012070470000624B2DE9F74F00F0F9
:10343C000F0253F82250431C07460E4601F00709B1
:10344C00C1F3062BC0F303141FFA80F803D14821F3
:10345C00594800F00BF92046FFF762FDB9F1010F56
:10346C0004464FEA156A45D150F80A1095FAA5F2B0
:10347C00B2FA82F20323920003FA02F221EA020268
:10348C0095FAA5F0B0FA80F0800083401343012236
:10349C0044F80A302946204609F1FF39FFF786FF28
:1034AC00B9F1010F06D816F0080218BF04222946FC
:1034BC00FFF793FF54F80A10C6F3011695FAA5F21C
:1034CC00B2FA82F39A000F2393400B4095FAA5F2BF
:1034DC00B2FA82F2012E4FEA820223FA02F322D0D0
:1034EC00022E4BD0082B31D1042229462046FFF75F
:1034FC005DFF2BE0B9F1030F0DD8DFE809F00212E4
:10350C0007105846FFF756FE0822C3E75846FFF748
:10351C0051FE0922BEE78D21274800F0A7F80022B2
:10352C00B8E74A46B6E7042B04D1082229462046C0
:10353C00FFF73CFFE2682B0A22EA152293FAA3F567
:10354C00B5FA85F301259D401543E5601B4B9A693F
:10355C0042F001029A619B6903F001030193019B04
:10356C00A8F10D03012B17D8154A536823F0E0631B
:10357C0043F08063536003B0BDE8F08F042B04D19B
:10358C00082229462046FFF711FFE3682A0A23EA9E
:10359C00152592FAA2F2D8E70F2F04D0A8F1130840
:1035AC00B8F1010FE7D8064A536823F0E06343F003
:1035BC000073DFE74C4A0008D549000800100240B0
:1035CC0000000140431C06D17047834202D1896838
:1035DC00FFF72ABF0C31B1F900305A1CF5D1B921D3
:1035EC00014800F043B800BFD5490008B1F90030DC
:1035FC005A1C01D100207047834201D148687047A2
:10360C000C31F3E7431C01D0FFF7F0BF00207047EB
:10361C004B6813B94FF0FF307047834202D1B1F9B8
:10362C00000070470C31F3E708B1FFF7F1BF4FF022
:10363C00FF30704703468B42084604D01BB100296B
:10364C000CBF184600207047034B1B6813B1034A8C
:10365C0010681847704700BF6805002080050020DF
:10366C000148FFF709B900BF6C050020FEE7000018
:10367C000F4B1A6842F001021A6059680D4A0A4051
:10368C005A601A6822F0847222F480321A601A6826
:10369C0022F480221A605A6822F4FE025A604FF417
:1036AC001F029A604FF00062034B9A60704700BF94
:1036BC00001002400000FFF800ED00E004387047F5
:1036CC0003681D4A84B093420BD11C4B9A6942F497
:1036DC0000629A619B6903F400630093009B04B041
:1036EC007047B3F1804F10D0154A934218D0154A49
:1036FC009342F4D1114BDA6942F00402DA61DB69CE
:10370C0003F004030393039BE9E70C4BDA6942F0E3
:10371C000102DA61DB6903F001030193019BDEE72F
:10372C00064BDA6942F00202DA61DB6903F002034C
:10373C000293029BD3E700BF002C01400010024013
:10374C0000040040000800400368124A934206D16E
:10375C0002F56442936923F4006393617047B3F1FB
:10376C00804F06D00C4A934209D00C4A93420BD09E
:10377C0070470B4AD36923F00103D3617047084AA1
:10378C00D36923F00203F8E7054AD36923F0040355
:10379C00F3E700BF002C014000040040000800408B
:1037AC000010024008B5431C01460DD00D4B984249
:1037BC0012D00CD8B0F1804F10D0A3F58063984292
:1037CC000ED00948FFF752FF6FF00D0008BD074BF4
:1037DC009842F6D11920F9E71E20F7E71C20F5E7EF
:1037EC001D20F3E700080040A44A0008002C01400B
:1037FC0008B5431C01460DD00D4B984212D00CD885
:10380C00B0F1804F10D0A3F5806398420ED00948D8
:10381C00FFF72CFF6FF00D0008BD074B9842F6D157
:10382C001B20F9E71E20F7E71C20F5E71D20F3E726
:10383C0000080040A44A0008002C014038B504469A
:10384C00FFF73EFF0068FFF7ADFFD4E91012FEF75B
:10385C0037FC2068FFF7A6FFFEF764FC2068FFF733
:10386C00C7FF05462068FFF79DFF85420DD02068F5
:10387C00FFF7BEFFD4E91012FEF722FC2068FFF719
:10388C00B7FFBDE83840FEF74DBC38BD2DE9FF470A
:10389C0004468946B0F94C00484990461F46DDF86D
:1038AC0030A0FFF7AFFE46490546B4F94E00FFF7CE
:1038BC00A9FE0646002D7ED0B4F94E30013301D05E
:1038CC00002878D031462846FFF7B4FE2060002847
:1038DC0071D03C4B984238D103F55843DA6842F426
:1038EC008042DA60DA6822F48042DA609A6942F443
:1038FC0080429A619B6903F480430193019B2523C9
:10390C00A4F850302D49B4F94C00FFF75BFE26B1FA
:10391C002B49B4F94E00FFF755FE94F851202A4B71
:10392C00201D43F8220023680C22C4E9013900232E
:10393C00C4E9038AC4E9062367612362002E35D1EA
:10394C0004B0BDE8F047FFF75AB9204B984215D1A7
:10395C0003F5E6331A6942F400321A611A6922F44B
:10396C0000321A61DA6942F40032DA61DB6903F47D
:10397C0000330293029B4FF49373C1E7144B9842AC
:10398C00C0D1144D2B6943F480232B612B6923F494
:10399C0080232B61EB6943F48023EB61EB6903F427
:1039AC0080230393039B40F22723A9E704B0BDE8CF
:1039BC00F047FFF7F6B804B0BDE8F087F04C00080C
:1039CC00B44C00080038014084050020004400403D
:1039DC00004800400010024008B1FFF757BF704785
:1039EC0008B5074B90F8512053F82200FFF792FAD4
:1039FC0000F02200A0F122035842584108BD00BF3C
:103A0C008405002008B5074B90F8512053F822008C
:103A1C00FFF780FA00F02100A0F121035842584131
:103A2C0008BD00BF8405002070B50E46054610B9D0
:103A3C004FF0FF3070BDFFF7D3FF04460028F7D1DD
:103A4C00294611F8523F0122337095F85100034B6F
:103A5C0053F82000FFF724F92046EBE784050020FB
:103A6C0070B50E460446F0B1FFF7BAFF0546D0B963
:103A7C0094F950006664FEF763FB94F851000A4B0E
:103A8C0004F15201012253F82000FFF709F994F9CF
:103A9C0050002A460121FEF713FB94F95000BDE8B3
:103AAC007040FEF73FBB70BD8405002010B5044686
:103ABC00E8B1816490F95000FEF742FBB4F8623033
:103ACC00A16D9BB294F851001944094B012253F893
:103ADC002000FFF7C6F894F9500000220121FEF7F0
:103AEC00EFFA94F95000BDE81040FEF71BBB10BD77
:103AFC008405002050B1B0F94E30013306D190F856
:103B0C005120034B53F82200FFF7D4B9704700BF84
:103B1C008405002050B1B0F94E30013306D190F835
:103B2C005120034B53F82200FFF7DCB9704700BF5C
:103B3C0084050020036C0438184710B5436C044608
:103B4C000438984701300AD0B4F85E30616D9BB2EE
:103B5C002046BDE8104001221944FFF782B810BD81
:103B6C001FB503680446186810F0010013D000223A
:103B7C0000921A6800925B680093009B201FFFF76D
:103B8C002FFF40BB0122204604F14E0104B0BDE8DA
:103B9C001040FFF785B8196811F0020106D00190AA
:103BAC001A6801925B680193019BE7E71A6812F0AF
:103BBC00040206D002911A6802925B680293029B7F
:103BCC00DCE719680907D9D503921A6803925B6878
:103BDC000393039BD2E704B010BD000008B5252069
:103BEC00FEF7D8FA024B1868BDE80840FFF7BAB8E0
:103BFC008405002008B52620FEF7CCFA024B586845
:103C0C00BDE80840FFF7AEB884050020272008B5B2
:103C1C00FEF7C0FA034B986818B1BDE80840FFF7EF
:103C2C00A1B808BD8405002003460A4910B50868F0
:103C3C000344EFF30882934205D90C224FF0FF3076
:103C4C00054B1A6010BD054A054C121B9342F4D269
:103C5C000B60F7E7F8000020C006002000500020A1
:103C6C0000040000FEE700001622024B4FF0FF306C
:103C7C001A607047C00600200120704710B54FF441
:103C8C0080330122022494B00021CDE90A23CDE92E
:103C9C0011434FF4E0130AA80C910E921393FEF704
:103CAC00E1FA00B1FEE70F23CDE905344FF4806350
:103CBC000790CDE90830214605A8FEF7A9FC00B114
:103CCC00FEE7122301934FF40043CDE9033001A822
:103CDC00FEF75AFD00B1FEE714B010BDB0F862302B
:103CEC00013303F03F03A0F86230B0F86230B0F853
:103CFC005E009BB298424FF0FF3018BF0020704717
:103D0C00B0F8F430B0F8F000181A00F03F0070472B
:103D1C00B0F8F430B0F8F0209BB293421ABFD0F850
:103D2C00E830985C4FF0FF30704713B50DF1070188
:103D3C000446FFF779FE90B9B4F86030B4F85C2013
:103D4C00013303F03F03934209D0B4F860209DF88F
:103D5C000700616D92B29BB28854A4F8603002B037
:103D6C0010BD0000012370B50374B0F9E2300446B5
:103D7C0001330E4600F1940508D190F8F8302BB1C0
:103D8C00002380F8F8302846FFF7B4FEB4F8F210A0
:103D9C004B1C03F03F03B4F8F62092B29342FAD0D6
:103DAC00D4F8EC2028465654A4F8F230FFF72AFE3B
:103DBC0018B928460249FFF779FE012070BD00BFF3
:103DCC00E93C0008037C33B1B0F8F220B0F8F630CF
:103DDC009BB29A42FAD1704700F11103914208BF8D
:103DEC004FF0FF31C0F8E8300023A0F8E02000F1DC
:103DFC005102A0F8F430C0E93B23A0F8E210A0F87F
:103E0C00F630704770B54FF47A7316460022C0E94D
:103E1C000123164B044603604FF6FF73A0F8E23003
:103E2C00134B0D46984214D1124B9A8AA0F8E220FB
:103E3C00DB8AA0F8E030012E04BF4FF6FF73A4F824
:103E4C00E2302046B4F9E020B4F9E210FFF7C4FFE9
:103E5C0070BD09492846FFF7E7FB0849A4F8E200C2
:103E6C002846FFF7E1FBA4F8E000E4E7F04D00087A
:103E7C00900500202C4D0008B44C0008F04C0008B4
:103E8C00B0F9E23010B5013304460ED103685B691A
:103E9C00984794F8F83043B9012304F1940084F85E
:103EAC00F830BDE81040FFF735BE10BD02F0070337
:103EBC00023BDBB2042B2DE9F7430E46C0F8FC1095
:103ECC0096BF1E490024CC5C02F03003302B054613
:103EDC0080F8F92026D14FF4C067013412F0080F96
:103EEC0014BF4FF400594FF00009082C21D0092CB5
:103EFC0021D04FF4C1711248FFF7B8FB05F19408BB
:103F0C0031463B4622464046CDF80090FFF764FD13
:103F1C002846FFF7B5FF40460A4903B0BDE8F04319
:103F2C00FFF79EBD12F020071CBF4FF480670134D1
:103F3C00D4E70024E2E74FF48054DFE7E24D0008B9
:103F4C00724D0008373D000810B50446FFF798FF86
:103F5C00B4F8F420B4F8F03092B29A4217BFD4F807
:103F6C00E8204FF0FF30D05C01331CBF03F03F035F
:103F7C00A4F8F03010BD0000002202490248FFF7FF
:103F8C0041BF00BF0038014090050020836810B588
:103F9C0004462BB10322014698470023C4E902339F
:103FAC00204610BD0B4B98420ED0B0F1804F0DD077
:103FBC00A3F5943398420BD04FF6FF73064A904208
:103FCC0014BF18460320704700207047012070472B
:103FDC0002207047002C014000080040014670B5DB
:103FEC00044651F8100FFFF7DDFF05460846FFF7B2
:103FFC00ABFB0023084A04F1580642F82530E36075
:10400C0004F1A805B54204D0103D2846FFF73BF853
:10401C00F8E7204670BD00BF90060020F8B50023DD
:10402C00044603660367C0F88030C0F89030C0F8CF
:10403C00A03008460D46FFF7B5FF4FF6FF739842C8
:10404C00064603D12F211E48FFF710FB1D4A04F131
:10405C000C0342F8263000230E2204F110062561D1
:10406C003046C4E90C33C4E90E33C4E91033C4E957
:10407C00142384F82C30A36484F84C3084F84D302D
:10408C00E460FFF71DFB04F1580504F1A80728466E
:10409C001035FFF77BFFBD42F9D100234FF6FF72BD
:1040AC00C4E90033C4E90632C4E90833A360636190
:1040BC0080233046A362FEF70FFD2046F8BD00BFFB
:1040CC00104E000890060020034B186810B1043005
:1040DC00FEF728BC704700BF90060020FFF7F4BF26
:1040EC00034B586810B10430FEF71CBC704700BF7E
:1040FC0090060020034B986810B10430FEF712BCF8
:10410C00704700BF90060020034BD86810B10430F4
:10411C00FEF708BC704700BF90060020826810B5FF
:10412C000AB900F069FBC368BDE8104018470000ED
:10413C0010B5044620B940F226410648FFF796FA1E
:10414C002046FFF7BBFA0068036E13B15830FFF737
:10415C00E5FF10BD104E0008FFF7EABF38B5054665
:10416C0020B940F239411048FFF780FA2B7F013B10
:10417C00072B11D8DFE803F01504101110101013E1
:10418C0002242846FFF79AFA240100685834204488
:10419C0083680BB1FFF7C2FF38BD0324F1E7042499
:1041AC00EFE70124EDE700BF104E0008FFF7D6BF84
:1041BC00FFF7D4BF2DE9F84305460C46002700F164
:1041CC00040800F1070918F8011B0A22204600F028
:1041DC00C0F82E210646204600F050F8C84506448B
:1041EC003744F0D10A222046E97900F0B2F838447D
:1041FC00BDE8F883024A026000224260704700BFAB
:10420C00884E000830B58371034D9DF80C30056065
:10421C0001714271C37130BD884E0008024A0260C0
:10422C000A684260704700BF884E00080B68436004
:10423C007047F8B505460E4617460024BC4207D019
:10424C002B6828461B68315D984708B10134F5E7A7
:10425C002046F8BD70B505460C46084649B1FBF73B
:10426C0059FF2B68024621462846BDE870405B6822
:10427C00184770BD08B5FFF7EDFF08BD03681B6854
:10428C001847000008B50249FFF7E4FF08BD00BF5E
:10429C008C4E000838B50546FFF7DCFF044628466F
:1042AC00FFF7F0FF204438BD0023012A98BF0A22F3
:1042BC0030B58BB00C468DF8243009A92546B4FBDB
:1042CC00F2F404FB1253DBB2092B94BF30333733B7
:1042DC00DBB2AA4201F8013DF0D9FFF7BBFF0BB0EE
:1042EC0030BD2DE9F04107460E4614462AB9BDE80B
:1042FC00F0410368C9B21B6818470A2A0DD100297E
:10430C000CDA2D21FFF7BAFF2246054671423846DA
:10431C00FFF7CAFF2844BDE8F081D2B2BDE8F041F6
:10432C00FFF7C2BFFFF7DDBF38B50546FFF7D9FF72
:10433C0004462846FFF7A6FF204438BD10B422B926
:10434C00026810BC1268C9B2104710BCD2B2FFF799
:10435C00ABBFFFF7F3BFFFF7F1BF10B5044600F09A
:10436C0019F9E06023682046DB689847002808DAD2
:10437C0000F010F9E368C01AA3689842F2D34FF02A
:10438C00FF3010BDF8B506460D4617460024BC425A
:10439C0007D03046FFF7E1FF031E02DB2B5501343B
:1043AC00F5E72046F8BD2DE9F0410746884616464C
:1043BC001D4673B100243846FFF7CFFF031E05DB03
:1043CC00434503D033550134A542F4D12046BDE812
:1043DC00F0811C46FAE770B504468AB0084689B1EC
:1043EC00931E222B23D801AD29466CB9A9420BD0C0
:1043FC000B46421EAB4215D84B1B8D4288BF002387
:10440C000022C2540AB070BDB4FBF2F302FB134697
:10441C001C46092EF3B294BF30335733DBB201F88C
:10442C00013BE2E713F8014D02F8014FE2E70020EF
:10443C00E8E7FFF7D0BF08B50320FDF72FFEBDE876
:10444C00084000F0C5B808B5AFF30080FCF7F2F8EF
:10445C00FCF748F900F0AEF8FAE700F0E1B800F02C
:10446C00E7B80000002103E00B4B5B5843500431CC
:10447C000A480B4B42189A42F6D30A4A02E0002330
:10448C0042F8043B084B9A42F9D3FFF7F1F800F0DD
:10449C00A3F8FFF7D8FF7047A44F000800000020D6
:1044AC006001002060010020D0060020FEE7000023
:1044BC0022282DE9F0410E463DD8204B33F910400F
:1044CC00621C38D01E4DC4F3031755F8273004F086
:1044DC000F0823FA08F3DB0710D520461949FEF71D
:1044EC0093FF10B12046FEF76FFD012303FA08F28B
:1044FC0055F8273023EA020345F82730052E14D847
:10450C00DFE806F0030F090B0D1100212046BDE872
:10451C00F041FEF789BF1021F8E72021F6E70321CF
:10452C00F4E70121F2E70921F0E74921BDE8F04168
:10453C000548FFF79BB8BDE8F08100BF2C4D000883
:10454C00A0060020BC4A00088F4E000822288EBF0F
:10455C004FF0FF330C4B33F91030C3F30312042A22
:10456C0098BF0A4803F00F0398BF50F82220084860
:10457C0088BF002250F82330C3F30F2309B1136115
:10458C0070475361704700BF2C4D0008E0000020BD
:10459C004C4A0008FEF746BD38B5044648B1FEF754
:1045AC0041FD054600F016F8FEF73CFD431BA34207
:1045BC00F8D338BD08B5044B2BB10448FFF7A0FB6A
:1045CC0008B1AFF3008008BD00000000900500208A
:1045DC00FEF750BD7047000070B500260C4D0D4C19
:1045EC00641BA410A64209D100F054F900260A4D10
:1045FC000A4C641BA410A64205D170BD55F8043BAF
:10460C0098470136EEE755F8043B98470136F2E738
:10461C00604F0008604F0008604F00089C4F000876
:10462C00024B0146186800F05FB800BFFC00002088
:10463C00024B0146186800F00BB800BFFC000020CC
:10464C0003460244934200D1704703F8011BF9E77B
:10465C0038B50546002943D051F8043C0C1F002BFB
:10466C00B8BFE41800F0BCF81E4A1368104633B902
:10467C00636014602846BDE8384000F0B7B8A34228
:10468C000AD921686218934201BF1A685B685218F4
:10469C00226063600460EDE71A465B680BB1A342CD
:1046AC00FAD911685018A0420BD120680144501857
:1046BC0083421160DED118685B680144116053605D
:1046CC00D8E702D90C232B60D4E7206821188B4241
:1046DC0001BF19685B680918216063605460C9E701
:1046EC0038BD00BFB4060020F8B5CD1C25F003057D
:1046FC0008350C2D38BF0C25002D064601DBA942D0
:10470C0003D90C2333600020F8BD00F069F821496F
:10471C000A6814469CB9204F3B6823B921463046A1
:10472C0000F03CF838602946304600F037F8431C5E
:10473C0023D10C233046336000F058F8E3E72368AC
:10474C005B1B17D40B2B03D923601C44256004E09E
:10475C006368A2420CBF0B605360304600F046F811
:10476C0004F10B00231D20F00700C21ACCD01B1A39
:10477C00A350C9E722466468CCE7C41C24F00304A8
:10478C00A042E3D0211A304600F008F80130DDD108
:10479C00CFE700BFB4060020B806002038B50023D0
:1047AC00054D044608462B60FFF73EFA431C02D128
:1047BC002B6803B1236038BDC0060020024610B53B
:1047CC00147813460132002CFAD1013B11F8012B5D
:1047DC0003F8012F002AF9D110BD70477047000073
:1047EC000148FFF7FABF00BFC80600200148FFF7D9
:1047FC00F5BF00BFC806002008B500F000F8062081
:10480C0008B500F02BF80120FFF72CFA1F2938B55A
:10481C0004460D4604D9162303604FF0FF3038BD13
:10482C00426C12B152F821304BB9204600F030F8EE
:10483C002A4601462046BDE8384000F017B8012B47
:10484C000AD0591C03D1162303600120E7E700248A
:10485C00284642F8254098470020E0E7024B0146E5
:10486C001868FFF7D3BF00BFFC00002038B5002349
:10487C00064D0446084611462B60FFF7F5F9431C1C
:10488C0002D12B6803B1236038BD00BFC0060020E5
:10489C00FFF7F2B9F8B500BFF8BC08BC9E467047EC
:0C48AC00F8B500BFF8BC08BC9E46704781
:1048B80073797344657363722E2E2E00200073790A
:1048C80073557054696D652E2E2E007379734E6181
:1048D8006D652E2E2E00737973436F6E7461637449
:1048E80000737973436F6E746163742E2E2E007398
:1048F80079734C6F636174696F6E2E2E2E002020C1
:104908006C6F6353657276696365732E2E2E005340
:104918004E4D50204167656E7420496E6974616C14
:10492800697A65642E2E2E00534E4D5020416765DE
:104938006E7420496E6974616C697A6174696F6E0E
:104948002050726F626C656D2E2E2E0000000000E4
:1049580000000000F510000857110008F1100008C9
:104968006F110008C31100080D11000891430008D9
:10497800B343000839120008D110000821110008BB
:1049880045110008AD12000851110008E511000892
:104998009B110008D5100008DD100008ED10000874
:1049A8007075626C69630070726976617465000085
:1049B8000000000000000000ED1F000802030405CD
:1049C800060708090A0B0C0D0E0F101000433A5C7D
:1049D80055736572735C53616E67656E676F4E5C85
:1049E800417070446174615C4C6F63616C5C4172CE
:1049F8006475696E6F31355C7061636B616765738F
:104A08005C53544D33325C68617264776172655CE3
:104A180073746D33325C312E392E305C6C6962727E
:104A280061726965735C5372635772617070657205
:104A38005C7372635C73746D33325C70696E6D6144
:104A4800702E63000101000002020000040400004F
:104A5800080800001010000020200000404000005E
:104A68008080000001000104020002040400040424
:104A7800080008041000100420002004400040042E
:104A88008000800400000000000000000102030410
:104A980006070809000000000102030454494D3AC2
:104AA80020556E6B6E6F776E2074696D6572204944
:104AB80052516E000000000000000040128000000B
:104AC8000100000000000040120001000200000088
:104AD80000000040128001000300000000000040B8
:104AE80012000200060000000004004012800000CE
:104AF8000700000000040040120001000800000048
:104B0800002C01401280000009000000002C014028
:104B1800120001000A000000002C01401280010070
:104B28000B000000002C0140120002000F000000E2
:104B380000000040128F0000100000000004004038
:104B48001280010011000000000400401200020061
:104B58001300000000000040120F010014000000C4
:104B680000040040129400001500000000040040FA
:104B78001214010016000000000800401280000016
:104B88001700000000080040120001001800000093
:104B980000080040128001001900000000080040D1
:104BA800120002001A00000000000040128F0100ED
:104BB8001B00000000000040120F02001D00000052
:104BC800002C0140128010001E000000002C014043
:104BD800120011001F000000002C0140128011007B
:104BE800FFFF0000000000000000000006000000B9
:104BF80000300140120000001400000000300140A5
:104C0800120100001E0000000038004012000000E1
:104C1800FFFF000000000000000000000700000087
:104C28000030014012000000150000000030014073
:104C3800120100001F0000000038004012000000B0
:104C4800FFFF000000000000000000000500000059
:104C58000030014012000000130000000030014045
:104C6800120100001D000000003800401200000082
:104C7800FFFF00000000000000000000040000002A
:104C880000300140120000000F0000000030014019
:104C9800120100001C000000003800401200000053
:104CA800FFFF0000000000000000000003000000FB
:104CB80000440040100000000A00000000380140D5
:104CC8001000000017000000003801401005000027
:104CD8001B0000000048004010000000FFFF00001B
:104CE8000000000000000000020000000044004036
:104CF8001200000009000000003801401200000006
:104D08001600000000380140120500001A000000DB
:104D18000048004012000000FFFF000000000000F3
:104D280000000000190018001700160015001400F4
:104D380013000F000C000B000A00090008001F00F8
:104D48001E001D001C002D002E002F000000010079
:104D5800020003000400050006000700100011000F
:104D68001A001B0012000D000E00433A5C557365D3
:104D780072735C53616E67656E676F4E5C417070ED
:104D8800446174615C4C6F63616C5C417264756909
:104D98006E6F31355C7061636B616765735C53542A
:104DA8004D33325C68617264776172655C73746DEF
:104DB80033325C312E392E305C636F7265735C61FF
:104DC800726475696E6F5C4861726477617265536D
:104DD800657269616C2E6370700006000700080038
:104DE8000000000000000000713D00083F4200087C
:104DF8000D3D0008553F00081D3D0008D13D000845
:104E080091430008B3430008433A5C5573657273D5
:104E18005C53616E67656E676F4E5C41707044618C
:104E280074615C4C6F63616C5C41726475696E6F30
:104E380031355C7061636B616765735C53544D33E6
:104E4800325C68617264776172655C73746D333269
:104E58005C312E392E305C636F7265735C617264ED
:104E680075696E6F5C486172647761726554696DCB
:104E780065722E63707000000000000000000000E2
:104E8800C14100080D0A00433A5C55736572735CB2
:104E980053616E67656E676F4E5C417070446174F4
:104EA800615C4C6F63616C5C41726475696E6F31F3
:104EB800355C7061636B616765735C53544D333265
:104EC8005C68617264776172655C73746D33325CBF
:104ED800312E392E305C636F7265735C6172647554
:104EE800696E6F5C776972696E675F646967697418
:104EF800616C2E630000000000000000000000004C
:104F08000000000000000000000000000000000099
:104F18000000000000000000000000000000000089
:104F28000000000000000000000000000000000079
:104F38000000000000000000000000000000000069
:104F48000000000000000000000000000000000059
:084F5800000000000000000051
:104F6000434400085501000825070008710900089E
:104F7000950C0008050D000899100008B5100008F0
:104F8000091300086114000891140008E91A0008C8
:0C4F9000111B00081D310008853F0008BF
:084F9C0031010008A5310008F5
:104FA400457269632047696F6E65740000000000F4
:104FB40000000000312E332E362E312E322E312EAB
:104FC400312E342E30004E6F76612053636F746936
:104FD400612C2043410000000000312E332E362E78
:104FE400312E322E312E312E362E3000312E332EEC
:104FF400362E312E322E312E312E372E3000C0A8CF
:105004000108DEADBEEFFEED4167656E7475696E35
:105014006F0000000000000000000000312E332E5D
:10502400362E312E322E312E312E352E3000416760
:10503400656E7475696E6F2C2061206C6967687485
:105044002D77656967687420534E4D50204167651C
:105054006E742E00312E332E362E312E322E312EFA
:10506400312E312E3000312E332E362E312E322E6B
:10507400312E312E332E30000100000010000000CC
:1050840000080140000C01400010014000140140E0
:10509400001801400024F400D00600200001002084
:1050A40000000000204F0008404F0008004F000897
:1050B40000000000000000000000000000000000EC
:1050C40000000000000000000000000000000000DC
:1050D40000000000000000000000000000000000CC
:1050E40000000000000000000000000000000000BC
:1050F40000000000000000000000000000000000AC
:04000005080044713A
:00000001FF
